S0170000536D6172745F686F6D655F4D4355322E7372656388
S11300000C942A000C9434000C9434000C943400A6
S11300100C9434000C9434000C9434000C9434008C
S11300200C9434000C9434000C9434000C9434007C
S11300300C9434000C9434000C9434000C9434006C
S11300400C9434000C9434000C9434000C9434005C
S11300500C94340011241FBECFE5D8E0DEBFCDBF21
S11300600E9418010C945F010C9400004423B9F120
S1130070413009F06BC0813089F028F08230C9F03A
S1130080833011F108952AB381E090E002C0880F13
S1130090991F6A95E2F7822B8ABB089527B381E002
S11300A090E002C0880F991F6A95E2F7822B87BB04
S11300B0089524B381E090E002C0880F991F6A95E7
S11300C0E2F7822B84BB089521B381E090E002C063
S11300D0880F991F6A95E2F7822B81BB08958130BE
S11300E091F028F08230D9F0833029F108952AB3B1
S11300F081E090E002C0880F991F6A95E2F780952D
S113010082238ABB089527B381E090E002C0880F60
S1130110991F6A95E2F78095822387BB089524B3DB
S113012081E090E002C0880F991F6A95E2F78095FC
S1130130822384BB089521B381E090E002C0880F3C
S1130140991F6A95E2F78095822381BB0895442321
S1130150B9F1413009F06BC0813089F028F0823068
S1130160C9F0833011F108952BB381E090E002C00F
S1130170880F991F6A95E2F7822B8BBB089528B3E9
S113018081E090E002C0880F991F6A95E2F7822B04
S113019088BB089525B381E090E002C0880F991FC1
S11301A06A95E2F7822B85BB089522B381E090E043
S11301B002C0880F991F6A95E2F7822B82BB0895CB
S11301C0813091F028F08230D9F0833029F10895FC
S11301D02BB381E090E002C0880F991F6A95E2F783
S11301E0809582238BBB089528B381E090E002C000
S11301F0880F991F6A95E2F78095822388BB08953A
S113020025B381E090E002C0880F991F6A95E2F758
S11302108095822385BB089522B381E090E002C0DB
S1130220880F991F6A95E2F78095822382BB08950F
S113023041E061E082E00E94360041E062E082E059
S11302400E9436000E94420180E00E945A018133DC
S113025019F0823361F0F8CF41E061E082E00E945E
S1130260A70040E062E082E00E94A700EDCF41E0F9
S113027062E082E00E94A70040E061E082E00E9428
S1130280A700E2CF41E066E081E00E94360040E052
S113029065E081E00E94360040E067E081E00E9472
S11302A0360040E064E081E00E9436008DB1806455
S11302B08DB908958FB9779BFECF8FB10895F894C7
S10502C0FFCF6A
S9030000FC
